:10000000A7C00000C0C00000BEC00000BCC000000F
:10001000BAC00000B8C00000B6C00000B4C0000004
:10002000B2C00000B0C00000AEC00000CBC40000F1
:100030008FC40000A8C00000A6C00000A4C000003B
:10004000A2C00000A0C000009EC000009CC0000034
:100050009AC0000098C0000096C0000021C10000B6
:1000600092C0000090C000008EC000008CC0000054
:100070008AC0000088C0000086C0000084C0000064
:1000800082C0000080C000007EC000007CC0000074
:100090007AC0000078C000001201100102000008C0
:1000A00041233D0001000102DC0109023E00020182
:1000B00000C0320904000001020201000524000111
:1000C0001004240206052406000107058203080027
:1000D000FF09040100020A000000070504024000B5
:1000E00001070583024000010403090432034100B3
:1000F00072006400750069006E006F002000280027
:100100007700770077002E006100720064007500B0
:1001100069006E006F002E0063006300290000007C
:100120002E03410072006400750069006E006F00CC
:1001300020004400750065002000500072006F0030
:1001400067002E00200050006F0072007400000055
:1001500011241FBECFEFD2E0DEBFCDBF11E0A0E083
:10016000B1E0E8EEF0E102C005900D92A831B107D0
:10017000D9F712E0A8E1B1E001C01D92A833B107A0
:10018000E1F722D1AFC73CCF9C01DC01AE57BF4F96
:10019000ED91FC91119741911196FC93EE9380584B
:1001A0009F4FE817F90711F42D933C939FB7F894EC
:1001B000F901EC57FF4F8081815080839FBF842FCE
:1001C0000895882311F03F9A01C03F9847980895F9
:1001D000882311F046980895469A0895DF92EF9289
:1001E000FF920F931F93FC018489813019F08230B4
:1001F00019F404C010E303C010E001C010E28389C9
:10020000823009F418608589873031F0883031F008
:10021000863029F4126003C0146001C01660109289
:10022000C9001092C8001092CA000785F088E188C2
:10023000D288202F3F2D4E2D5D2D10921E01203B88
:1002400084E0380780E0480780E0580719F481E02F
:1002500080931E01CA01B90122E030E040E050E085
:1002600026D720583B47414E5F4FCA01B901202F86
:100270003F2D4E2D5D2DF9D6215030403093CD00CD
:100280002093CC001093CA0082E08093C80088E9D4
:100290008093C9001F910F91FF90EF90DF90089518
:1002A0001F920F920FB60F9211242F938F939F934B
:1002B000EF93FF939091CE008EB38430F1F4E091F0
:1002C000A201F091A3019083E091A201F091A3011A
:1002D000CF0101969093A3018093A201825A91408D
:1002E00021F482E291E0928381839FB7F894809118
:1002F000A6018F5F8093A6019FBFFF91EF919F9111
:100300008F912F910F900FBE0F901F901895FC01A9
:1003100040911A0140931B0180911C0180931D01A3
:100320008585282F30E02170307020931A01858553
:1003300090E096958795817080931C0180911E01B5
:10034000882339F08FE590E090931901809318018C
:100350000895442341F4222331F08EE190E09093FC
:10036000190180931801089580E091E014C680E09F
:1003700091E0C7C51F9384B7877F84BF18E10FB68C
:10038000F89410936000109260000FBE80E019DFB7
:10039000469A3E9A87E690E09093CD008093CC00F9
:1003A00086E08093CA001092C8001093C900539A47
:1003B0005A9A8AB180638AB98BB180638BB9BDD2F6
:1003C00084E085BD1F9108950F931F93CF93DF9312
:1003D000D1DF2FB7F89487EA91E0909328028093B9
:1003E000270290932A02809329022FBF2FB7F894F7
:1003F00082E291E09093A3018093A2019093A501E2
:100400008093A4012FBF7894C7EAD1E003E08FB7AF
:10041000F89490912B028FBF903809F180E091E021
:10042000E6D497FD1CC0E0912702F091280280835A
:10043000E0912702F0912802CF01019690932802C3
:10044000809327028752924011F4D283C1839FB7D1
:10045000F89480912B028F5F80932B029FBF8FB700
:10046000F8941091A6018FBFA89903C0113608F423
:1004700069C0A89A8091A601882361F05D980093D5
:100480001F0108C082E291E07FDE682F80E091E0EA
:1004900014D511501123B1F780911F01882351F019
:1004A00080911F01815080931F0180911F0188233B
:1004B00009F45D9A80912001882351F080912001F8
:1004C00081508093200180912001882309F45C9A57
:1004D0008091180190911901181619067CF58F3535
:1004E000910521F481E074DE80E06BDE80911801DB
:1004F00090911901839721F480E06ADE80E061DE4B
:100500008091180190911901499721F480E060DEF3
:1005100081E057DE8091180190911901019721F433
:1005200080E056DE80E04DDE809118019091190147
:100530000197909319018093180104C080E048DE70
:1005400080E03FDE8FB7F89490912B028FBF992304
:1005500069F087EA91E018DE982F8091C80085FF46
:10056000FCCF9093CE005C980093200180E091E056
:1005700095D42AD44CCFDA01923049F0933061F00F
:100580009130F9F4E8E9F0E022E130E01EC0EAEA57
:10059000F0E02EE330E019C0813049F0813018F0EE
:1005A000823079F408C0E8EEF0E0849107C0ECEE08
:1005B000F0E0849103C0E0E2F1E08491282F30E084
:1005C00004C0E0E0F0E020E030E0ED93FC93C901EE
:1005D000089528E030E040E003C04F5F220F331F52
:1005E00028173907D0F3842F8295807F0895809350
:1005F000E9008091EB0081608093EB001092ED00A8
:100600006093EC004093ED008091EE00881F8827F6
:10061000881F08951092F40090E09093E9001092E2
:10062000F0001092E8001092ED008091EB008E7FB8
:100630008093EB009F5F953081F7089580913002A1
:1006400088238CF403C08EB38823B1F08091E80036
:1006500082FFF9CF8091E8008B778093E8000895BE
:100660008EB3882349F08091E80080FFF9CF809114
:10067000E8008E778093E800089594E68091EC007E
:1006800080FF05C08091E80080FF05C023C08091F5
:10069000E80082FD1FC08EB3882311F482E0089524
:1006A0008EB3853011F483E008958091EB0085FFCF
:1006B00002C081E008958091E10082FFDFCF809148
:1006C000E1008B7F8093E100992311F484E0089589
:1006D0009150D4CF80E008959C0140913602509112
:1006E00037024617570718F4F90120E038C06115A2
:1006F000710511F0AB01F8CF8091E8008E778093FF
:10070000E80040E050E0F0CF8091E80083FF02C0B5
:1007100081E008958091E80082FD2DC08EB388238A
:1007200081F18EB3853079F18091E80080FF17C0A8
:100730009091F20006C081918093F10041505040A9
:100740009F5F4115510511F09830A8F320E09830D3
:1007500009F421E08091E8008E778093E80041154C
:10076000510591F6222381F606C08EB3882349F005
:100770008EB3853041F08091E80082FFF6CF80E0B3
:10078000089582E0089583E008959C014091360227
:10079000509137024617570710F490E03BC061159F
:1007A000710511F0AB01F9CF8091E8008E7780934D
:1007B000E80040E050E0F1CF8091E80083FF02C004
:1007C00081E008958091E80082FD30C08EB38823D7
:1007D00099F18EB3853091F18091E80080FF1AC0C5
:1007E0008091F20009C0F9012F5F3F4FE491E0933F
:1007F000F100415050408F5F4115510511F0883094
:1008000090F390E0883009F491E08091E8008E77D1
:100810008093E8004115510579F6992369F606C0E1
:100820008EB3882349F08EB3853041F08091E80083
:1008300082FFF6CF80E0089582E0089583E0089576
:100840009C016115710529F48091E8008B778093F4
:10085000E800F90120C08091E80083FF02C081E038
:1008600008958EB3882339F18EB3853031F18091AC
:10087000E80082FFF0CF06C08091F10081936150C3
:10088000704021F08091F2008823B1F78091E80058
:100890008B778093E80061157105E9F606C08EB389
:1008A000882349F08EB3853041F08091E80080FFC5
:1008B000F6CF80E0089582E0089583E0089542D065
:1008C00044D01EBA10922E0210922D0210922C02C9
:1008D00084E089BD89B5826089BD09B400FEFDCF81
:1008E0008091D800982F9F779093D800806880934C
:1008F000D800809163008E7F809363008091D80040
:100900008F7D8093D8008091E0008E7F8093E000FF
:100910008091E1008E7F8093E1008091E200816010
:100920008093E2008091E100877F8093E1008091D5
:10093000E20088608093E2000895C1DF81E0809347
:100940002F0208951092E20008951092E100089598
:100950001F920F920FB60F9211241F932F933F9364
:100960004F935F936F937F938F939F93AF93BF93B7
:10097000EF93FF93E9EEF0E0108117701082E0EF43
:10098000F0E08081877F80837894C3D0F894A9EECB
:10099000B0E01C92E0EFF0E08081886080831C93DF
:1009A000FF91EF91BF91AF919F918F917F916F9147
:1009B0005F914F913F912F911F910F900FBE0F901C
:1009C0001F9018951F920F920FB60F9211242F931C
:1009D0003F934F935F936F937F938F939F93AF93C7
:1009E000BF93EF93FF938091E10080FF1BC0809144
:1009F000E20080FF17C08091E1008E7F8093E100CC
:100A00008091E2008E7F8093E2008091E20080611D
:100A10008093E2008091D80080628093D80019BC56
:100A20001EBAD1D18091E10084FF29C08091E200FB
:100A300084FF25C084E089BD89B5826089BD09B481
:100A400000FEFDCF8091D8008F7D8093D8008091EB
:100A5000E1008F7E8093E1008091E2008F7E8093A1
:100A6000E2008091E20081608093E20080912E029A
:100A7000882311F481E001C084E08EBBA4D1809171
:100A8000E10083FF27C08091E20083FF23C08091B3
:100A9000E100877F8093E10082E08EBB10922E02FE
:100AA0008091E1008E7F8093E1008091E2008E7F53
:100AB0008093E2008091E20080618093E200AADDF1
:100AC00080E060E042E093DD8091F00088608093F8
:100AD000F00079D18091E10082FF0AC08091E200AC
:100AE00082FF06C08091E1008B7F8093E1006BD193
:100AF000FF91EF91BF91AF919F918F917F916F91F6
:100B00005F914F913F912F910F900FBE0F901F90CB
:100B100018951F93DF93CF93CDB7DEB7AC970FB681
:100B2000F894DEBF0FBECDBFE0E3F2E08091F100AC
:100B3000819322E0E833F207C9F7809130023091C7
:100B40003102353009F487C0363040F43130C9F114
:100B5000313070F0333009F01DC133C0383009F442
:100B6000EFC0393009F4FEC0363009F013C192C02D
:100B7000803821F0823809F00DC108C090912C0214
:100B800080912D02882399F0926011C080913402E7
:100B900087708093E9008091EB0090E025E09695C6
:100BA00087952A95E1F7982F91701092E90080912E
:100BB000E800877F8093E8009093F1001092F100A5
:100BC000CAC0882319F0823009F0E4C090E08F7128
:100BD0009070009721F0029709F0DDC00CC0809161
:100BE0003202813009F0D7C010922D02333069F5FE
:100BF00080932D022AC080913202882331F5209102
:100C00003402277009F4C7C02093E9008091EB00FB
:100C100080FFC1C0333021F48091EB00806213C0AB
:100C20008091EB0080618093EB0081E090E002C056
:100C3000880F991F2A95E2F78093EA001092EA0044
:100C40008091EB0088608093EB001092E900809126
:100C5000E800877F83C0882309F09CC0109132028E
:100C60008091E800877F8093E800E8DC04C08EB3C1
:100C7000882309F490C08091E80080FFF8CF812F8D
:100C80008F7711F492E001C093E09EBB806880935F
:100C9000E30081C08058823008F07CC0809132022D
:100CA0009091330223E08C3D920799F55FB7F89459
:100CB000DE0115964EE020E030E061E2E42FF0E046
:100CC00060935700849120FF03C082958F704F5F1F
:100CD000982F9F70892F805D8A3308F0895F8C93ED
:100CE00011961C9211972F5F3F4F129624313105B8
:100CF00029F75FBF8AE28B8383E08C838091E800D1
:100D0000877F8093E800CE0103966AE270E0E4DC1E
:100D100011C060913402AE014F5F5F4F2CDCBC010B
:100D20000097C9F18091E800877F8093E80089816E
:100D30009A812BDD8091E8008B778093E8002BC0AF
:100D4000803841F58091E800877F8093E8008091AA
:100D50002E028093F1008091E8008E778093E80066
:100D60006DDC19C08823B1F490913202923098F46E
:100D70008091E800877F8093E80090932E025EDCEC
:100D800080912E02882311F483E001C084E08EBBA1
:100D9000EEDA01C0E9DA8091E80083FF0AC08091B1
:100DA000EB0080628093EB008091E800877F809366
:100DB000E800AC960FB6F894DEBF0FBECDBFCF9162
:100DC000DF911F91089508951F938EB3882361F0DA
:100DD0001091E9001092E9008091E80083FF01C0C2
:100DE00098DE17701093E9001F9108950895FC0193
:100DF0008EB3843021F587859089A189B2890097C7
:100E0000A105B105E1F085818093E9008091E800BA
:100E100082FF15C08091F200882319F42FEF3FEF75
:100E200004C08091F100282F30E08091F2008823E7
:100E300041F48091E8008B778093E80002C02FEFA7
:100E40003FEFC9010895FC018EB3843011F5878509
:100E50009089A189B2890097A105B105D1F081815E
:100E60008093E9008091F2008823A9F09091E80036
:100E70008091E8008E778093E80095FD0CC0FDDB43
:100E8000982F882349F48091E8008E778093E800BA
:100E900003C092E001C090E0892F0895FC018EB359
:100EA000843051F487859089A189B2890097A10582
:100EB000B10511F0CF01C7CF08951F93FC01162F84
:100EC0008EB38430D9F487859089A189B28900973F
:100ED000A105B10599F081818093E9008091E80036
:100EE00085FD08C08091E8008E778093E800C5DB1F
:100EF000882329F41093F10080E001C082E01F9163
:100F000008950F931F93CF93DF93EC010D96FC018F
:100F100089E0DF011D928A95E9F72A813B810981E9
:100F20008C81882311F410E001C014E0C90151DB69
:100F3000182B1260802F61E8412F59DB882329F19B
:100F40002E813F810D818885882311F410E001C036
:100F500014E0C9013EDB182B1260802F60E8412F9E
:100F600046DB882391F02A853B8509858C8588237B
:100F700011F410E001C014E0C9012BDB182B126042
:100F8000802F61EC412F33DB01C080E0DF91CF91F6
:100F90001F910F910895CF93DF93EC018091E800AA
:100FA00083FF60C0888190E0209134023091350247
:100FB0002817390709F056C080913102813261F05B
:100FC000823220F4803209F04DC019C0823269F1BA
:100FD000833209F047C038C080913002813A09F06D
:100FE00041C08091E800877F8093E800CE010F9692
:100FF00067E070E071DB8091E8008B7713C080912F
:101000003002813279F58091E800877F8093E80093
:10101000CE010F9667E070E013DCCE01DFD880913F
:10102000E8008E778093E8001DC080913002813205
:10103000C9F48091E800877F8093E80080913202B4
:101040008D87CE0164D90DC080913002813251F478
:101050008091E800877F8093E800CE0160913202A2
:10106000C5DEECDADF91CF910895A1E21A2EAA1B1A
:10107000BB1BFD010DC0AA1FBB1FEE1FFF1FA21748
:10108000B307E407F50720F0A21BB30BE40BF50B45
:10109000661F771F881F991F1A9469F760957095CE
:1010A000809590959B01AC01BD01CF01089597FB00
:1010B000092E05260ED057FD04D0D7DF0AD0001C1C
:1010C00038F450954095309521953F4F4F4F5F4FE5
:1010D0000895F6F790958095709561957F4F8F4FA5
:0810E0009F4F0895F894FFCF23
:1010E8000003400000044000000208000000000067
:0810F8000000000000001400DC
:00000001FF
